{
  "_format": "hh-sol-artifact-1",
  "contractName": "OceanToken",
  "sourceName": "contracts/OceanToken.sol",
  "abi": [
    {
      "inputs": [
        {
          "internalType": "uint256",
          "name": "cap_",
          "type": "uint256"
        },
        {
          "internalType": "uint256",
          "name": "reward_",
          "type": "uint256"
        }
      ],
      "stateMutability": "nonpayable",
      "type": "constructor"
    },
    {
      "inputs": [
        {
          "internalType": "uint256",
          "name": "increasedSupply",
          "type": "uint256"
        },
        {
          "internalType": "uint256",
          "name": "cap",
          "type": "uint256"
        }
      ],
      "name": "ERC20ExceededCap",
      "type": "error"
    },
    {
      "inputs": [
        {
          "internalType": "address",
          "name": "spender",
          "type": "address"
        },
        {
          "internalType": "uint256",
          "name": "allowance",
          "type": "uint256"
        },
        {
          "internalType": "uint256",
          "name": "needed",
          "type": "uint256"
        }
      ],
      "name": "ERC20InsufficientAllowance",
      "type": "error"
    },
    {
      "inputs": [
        {
          "internalType": "address",
          "name": "sender",
          "type": "address"
        },
        {
          "internalType": "uint256",
          "name": "balance",
          "type": "uint256"
        },
        {
          "internalType": "uint256",
          "name": "needed",
          "type": "uint256"
        }
      ],
      "name": "ERC20InsufficientBalance",
      "type": "error"
    },
    {
      "inputs": [
        {
          "internalType": "address",
          "name": "approver",
          "type": "address"
        }
      ],
      "name": "ERC20InvalidApprover",
      "type": "error"
    },
    {
      "inputs": [
        {
          "internalType": "uint256",
          "name": "cap",
          "type": "uint256"
        }
      ],
      "name": "ERC20InvalidCap",
      "type": "error"
    },
    {
      "inputs": [
        {
          "internalType": "address",
          "name": "receiver",
          "type": "address"
        }
      ],
      "name": "ERC20InvalidReceiver",
      "type": "error"
    },
    {
      "inputs": [
        {
          "internalType": "address",
          "name": "sender",
          "type": "address"
        }
      ],
      "name": "ERC20InvalidSender",
      "type": "error"
    },
    {
      "inputs": [
        {
          "internalType": "address",
          "name": "spender",
          "type": "address"
        }
      ],
      "name": "ERC20InvalidSpender",
      "type": "error"
    },
    {
      "inputs": [],
      "name": "EnforcedPause",
      "type": "error"
    },
    {
      "inputs": [],
      "name": "ExpectedPause",
      "type": "error"
    },
    {
      "inputs": [
        {
          "internalType": "address",
          "name": "owner",
          "type": "address"
        }
      ],
      "name": "OwnableInvalidOwner",
      "type": "error"
    },
    {
      "inputs": [
        {
          "internalType": "address",
          "name": "account",
          "type": "address"
        }
      ],
      "name": "OwnableUnauthorizedAccount",
      "type": "error"
    },
    {
      "anonymous": false,
      "inputs": [
        {
          "indexed": true,
          "internalType": "address",
          "name": "owner",
          "type": "address"
        },
        {
          "indexed": true,
          "internalType": "address",
          "name": "spender",
          "type": "address"
        },
        {
          "indexed": false,
          "internalType": "uint256",
          "name": "value",
          "type": "uint256"
        }
      ],
      "name": "Approval",
      "type": "event"
    },
    {
      "anonymous": false,
      "inputs": [
        {
          "indexed": true,
          "internalType": "address",
          "name": "previousOwner",
          "type": "address"
        },
        {
          "indexed": true,
          "internalType": "address",
          "name": "newOwner",
          "type": "address"
        }
      ],
      "name": "OwnershipTransferred",
      "type": "event"
    },
    {
      "anonymous": false,
      "inputs": [
        {
          "indexed": false,
          "internalType": "address",
          "name": "account",
          "type": "address"
        }
      ],
      "name": "Paused",
      "type": "event"
    },
    {
      "anonymous": false,
      "inputs": [
        {
          "indexed": true,
          "internalType": "address",
          "name": "from",
          "type": "address"
        },
        {
          "indexed": true,
          "internalType": "address",
          "name": "to",
          "type": "address"
        },
        {
          "indexed": false,
          "internalType": "uint256",
          "name": "value",
          "type": "uint256"
        }
      ],
      "name": "Transfer",
      "type": "event"
    },
    {
      "anonymous": false,
      "inputs": [
        {
          "indexed": false,
          "internalType": "address",
          "name": "account",
          "type": "address"
        }
      ],
      "name": "Unpaused",
      "type": "event"
    },
    {
      "inputs": [
        {
          "internalType": "address",
          "name": "owner",
          "type": "address"
        },
        {
          "internalType": "address",
          "name": "spender",
          "type": "address"
        }
      ],
      "name": "allowance",
      "outputs": [
        {
          "internalType": "uint256",
          "name": "",
          "type": "uint256"
        }
      ],
      "stateMutability": "view",
      "type": "function"
    },
    {
      "inputs": [
        {
          "internalType": "address",
          "name": "spender",
          "type": "address"
        },
        {
          "internalType": "uint256",
          "name": "value",
          "type": "uint256"
        }
      ],
      "name": "approve",
      "outputs": [
        {
          "internalType": "bool",
          "name": "",
          "type": "bool"
        }
      ],
      "stateMutability": "nonpayable",
      "type": "function"
    },
    {
      "inputs": [
        {
          "internalType": "address",
          "name": "account",
          "type": "address"
        }
      ],
      "name": "balanceOf",
      "outputs": [
        {
          "internalType": "uint256",
          "name": "",
          "type": "uint256"
        }
      ],
      "stateMutability": "view",
      "type": "function"
    },
    {
      "inputs": [],
      "name": "blockReward",
      "outputs": [
        {
          "internalType": "uint256",
          "name": "",
          "type": "uint256"
        }
      ],
      "stateMutability": "view",
      "type": "function"
    },
    {
      "inputs": [
        {
          "internalType": "uint256",
          "name": "value",
          "type": "uint256"
        }
      ],
      "name": "burn",
      "outputs": [],
      "stateMutability": "nonpayable",
      "type": "function"
    },
    {
      "inputs": [
        {
          "internalType": "address",
          "name": "account",
          "type": "address"
        },
        {
          "internalType": "uint256",
          "name": "value",
          "type": "uint256"
        }
      ],
      "name": "burnFrom",
      "outputs": [],
      "stateMutability": "nonpayable",
      "type": "function"
    },
    {
      "inputs": [],
      "name": "cap",
      "outputs": [
        {
          "internalType": "uint256",
          "name": "",
          "type": "uint256"
        }
      ],
      "stateMutability": "view",
      "type": "function"
    },
    {
      "inputs": [],
      "name": "decimals",
      "outputs": [
        {
          "internalType": "uint8",
          "name": "",
          "type": "uint8"
        }
      ],
      "stateMutability": "view",
      "type": "function"
    },
    {
      "inputs": [],
      "name": "name",
      "outputs": [
        {
          "internalType": "string",
          "name": "",
          "type": "string"
        }
      ],
      "stateMutability": "view",
      "type": "function"
    },
    {
      "inputs": [],
      "name": "owner",
      "outputs": [
        {
          "internalType": "address",
          "name": "",
          "type": "address"
        }
      ],
      "stateMutability": "view",
      "type": "function"
    },
    {
      "inputs": [],
      "name": "pause",
      "outputs": [],
      "stateMutability": "nonpayable",
      "type": "function"
    },
    {
      "inputs": [],
      "name": "paused",
      "outputs": [
        {
          "internalType": "bool",
          "name": "",
          "type": "bool"
        }
      ],
      "stateMutability": "view",
      "type": "function"
    },
    {
      "inputs": [],
      "name": "renounceOwnership",
      "outputs": [],
      "stateMutability": "nonpayable",
      "type": "function"
    },
    {
      "inputs": [
        {
          "internalType": "uint256",
          "name": "reward",
          "type": "uint256"
        }
      ],
      "name": "setBlockReward",
      "outputs": [],
      "stateMutability": "nonpayable",
      "type": "function"
    },
    {
      "inputs": [],
      "name": "symbol",
      "outputs": [
        {
          "internalType": "string",
          "name": "",
          "type": "string"
        }
      ],
      "stateMutability": "view",
      "type": "function"
    },
    {
      "inputs": [],
      "name": "totalSupply",
      "outputs": [
        {
          "internalType": "uint256",
          "name": "",
          "type": "uint256"
        }
      ],
      "stateMutability": "view",
      "type": "function"
    },
    {
      "inputs": [
        {
          "internalType": "address",
          "name": "to",
          "type": "address"
        },
        {
          "internalType": "uint256",
          "name": "value",
          "type": "uint256"
        }
      ],
      "name": "transfer",
      "outputs": [
        {
          "internalType": "bool",
          "name": "",
          "type": "bool"
        }
      ],
      "stateMutability": "nonpayable",
      "type": "function"
    },
    {
      "inputs": [
        {
          "internalType": "address",
          "name": "from",
          "type": "address"
        },
        {
          "internalType": "address",
          "name": "to",
          "type": "address"
        },
        {
          "internalType": "uint256",
          "name": "value",
          "type": "uint256"
        }
      ],
      "name": "transferFrom",
      "outputs": [
        {
          "internalType": "bool",
          "name": "",
          "type": "bool"
        }
      ],
      "stateMutability": "nonpayable",
      "type": "function"
    },
    {
      "inputs": [
        {
          "internalType": "address",
          "name": "newOwner",
          "type": "address"
        }
      ],
      "name": "transferOwnership",
      "outputs": [],
      "stateMutability": "nonpayable",
      "type": "function"
    },
    {
      "inputs": [],
      "name": "unpause",
      "outputs": [],
      "stateMutability": "nonpayable",
      "type": "function"
    }
  ],
  "bytecode": "0x60a06040523480156200001157600080fd5b506040516200293a3803806200293a8339818101604052810190620000379190620008b3565b33620000486200024760201b60201c565b600a62000056919062000a8a565b8362000063919062000adb565b6040518060400160405280600a81526020017f4f6365616e546f6b656e000000000000000000000000000000000000000000008152506040518060400160405280600381526020017f4f435400000000000000000000000000000000000000000000000000000000008152508160039081620000e0919062000d96565b508060049081620000f2919062000d96565b505050600081036200013e5760006040517f392e1e2700000000000000000000000000000000000000000000000000000000815260040162000135919062000ec0565b60405180910390fd5b806080818152505050600073ffffffffffffffffffffffffffffffffffffffff168173ffffffffffffffffffffffffffffffffffffffff1603620001bc5760006040517f1e4fbdf7000000000000000000000000000000000000000000000000000000008152600401620001b3919062000f22565b60405180910390fd5b620001cd816200025060201b60201c565b506200020e33620001e36200024760201b60201c565b600a620001f1919062000a8a565b63042c1d8062000202919062000adb565b6200031660201b60201c565b6200021e6200024760201b60201c565b600a6200022c919062000a8a565b8162000239919062000adb565b600681905550505062001012565b60006012905090565b6000600560009054906101000a900473ffffffffffffffffffffffffffffffffffffffff16905081600560006101000a81548173ffffffffffffffffffffffffffffffffffffffff021916908373ffffffffffffffffffffffffffffffffffffffff1602179055508173ffffffffffffffffffffffffffffffffffffffff168173ffffffffffffffffffffffffffffffffffffffff167f8be0079c531659141344cd1fd0a4f28419497f9722a3daafe3b4186f6b6457e060405160405180910390a35050565b600073ffffffffffffffffffffffffffffffffffffffff168273ffffffffffffffffffffffffffffffffffffffff16036200038b5760006040517fec442f0500000000000000000000000000000000000000000000000000000000815260040162000382919062000f22565b60405180910390fd5b6200039f60008383620003a360201b60201c565b5050565b620003b3620004c060201b60201c565b600073ffffffffffffffffffffffffffffffffffffffff168373ffffffffffffffffffffffffffffffffffffffff16141580156200041e5750600073ffffffffffffffffffffffffffffffffffffffff168273ffffffffffffffffffffffffffffffffffffffff1614155b8015620004585750600073ffffffffffffffffffffffffffffffffffffffff164173ffffffffffffffffffffffffffffffffffffffff1614155b80156200049157504173ffffffffffffffffffffffffffffffffffffffff168273ffffffffffffffffffffffffffffffffffffffff1614155b15620004a857620004a76200050a60201b60201c565b5b620004bb8383836200055660201b60201c565b505050565b620004d06200061860201b60201c565b1562000508576040517fd93c066500000000000000000000000000000000000000000000000000000000815260040160405180910390fd5b565b6200051a6200062f60201b60201c565b6006546200052d6200063960201b60201c565b62000539919062000f3f565b11620005545762000553416006546200031660201b60201c565b5b565b620005698383836200064360201b60201c565b600073ffffffffffffffffffffffffffffffffffffffff168373ffffffffffffffffffffffffffffffffffffffff160362000613576000620005b06200062f60201b60201c565b90506000620005c46200063960201b60201c565b905081811115620006105780826040517f9e79f8540000000000000000000000000000000000000000000000000000000081526004016200060792919062000f8b565b60405180910390fd5b50505b505050565b6000600560149054906101000a900460ff16905090565b6000608051905090565b6000600254905090565b600073ffffffffffffffffffffffffffffffffffffffff168373ffffffffffffffffffffffffffffffffffffffff1603620006995780600260008282546200068c919062000f3f565b925050819055506200076f565b60008060008573ffffffffffffffffffffffffffffffffffffffff1673ffffffffffffffffffffffffffffffffffffffff1681526020019081526020016000205490508181101562000728578381836040517fe450d38c0000000000000000000000000000000000000000000000000000000081526004016200071f9392919062000fb8565b60405180910390fd5b8181036000808673ffffffffffffffffffffffffffffffffffffffff1673ffffffffffffffffffffffffffffffffffffffff16815260200190815260200160002081905550505b600073ffffffffffffffffffffffffffffffffffffffff168273ffffffffffffffffffffffffffffffffffffffff1603620007ba578060026000828254039250508190555062000807565b806000808473ffffffffffffffffffffffffffffffffffffffff1673ffffffffffffffffffffffffffffffffffffffff168152602001908152602001600020600082825401925050819055505b8173ffffffffffffffffffffffffffffffffffffffff168373ffffffffffffffffffffffffffffffffffffffff167fddf252ad1be2c89b69c2b068fc378daa952ba7f163c4a11628f55a4df523b3ef8360405162000866919062000ff5565b60405180910390a3505050565b600080fd5b6000819050919050565b6200088d8162000878565b81146200089957600080fd5b50565b600081519050620008ad8162000882565b92915050565b60008060408385031215620008cd57620008cc62000873565b5b6000620008dd858286016200089c565b9250506020620008f0858286016200089c565b9150509250929050565b7f4e487b7100000000000000000000000000000000000000000000000000000000600052601160045260246000fd5b60008160011c9050919050565b6000808291508390505b6001851115620009885780860481111562000960576200095f620008fa565b5b6001851615620009705780820291505b8081029050620009808562000929565b945062000940565b94509492505050565b600082620009a3576001905062000a76565b81620009b3576000905062000a76565b8160018114620009cc5760028114620009d75762000a0d565b600191505062000a76565b60ff841115620009ec57620009eb620008fa565b5b8360020a91508482111562000a065762000a05620008fa565b5b5062000a76565b5060208310610133831016604e8410600b841016171562000a475782820a90508381111562000a415762000a40620008fa565b5b62000a76565b62000a56848484600162000936565b9250905081840481111562000a705762000a6f620008fa565b5b81810290505b9392505050565b600060ff82169050919050565b600062000a978262000878565b915062000aa48362000a7d565b925062000ad37fffffffffffffffffffffffffffffffffffffffffffffffffffffffffffffffff848462000991565b905092915050565b600062000ae88262000878565b915062000af58362000878565b925082820262000b058162000878565b9150828204841483151762000b1f5762000b1e620008fa565b5b5092915050565b600081519050919050565b7f4e487b7100000000000000000000000000000000000000000000000000000000600052604160045260246000fd5b7f4e487b7100000000000000000000000000000000000000000000000000000000600052602260045260246000fd5b6000600282049050600182168062000ba857607f821691505b60208210810362000bbe5762000bbd62000b60565b5b50919050565b60008190508160005260206000209050919050565b60006020601f8301049050919050565b600082821b905092915050565b60006008830262000c287fffffffffffffffffffffffffffffffffffffffffffffffffffffffffffffffff8262000be9565b62000c34868362000be9565b95508019841693508086168417925050509392505050565b6000819050919050565b600062000c7762000c7162000c6b8462000878565b62000c4c565b62000878565b9050919050565b6000819050919050565b62000c938362000c56565b62000cab62000ca28262000c7e565b84845462000bf6565b825550505050565b600090565b62000cc262000cb3565b62000ccf81848462000c88565b505050565b5b8181101562000cf75762000ceb60008262000cb8565b60018101905062000cd5565b5050565b601f82111562000d465762000d108162000bc4565b62000d1b8462000bd9565b8101602085101562000d2b578190505b62000d4362000d3a8562000bd9565b83018262000cd4565b50505b505050565b600082821c905092915050565b600062000d6b6000198460080262000d4b565b1980831691505092915050565b600062000d86838362000d58565b9150826002028217905092915050565b62000da18262000b26565b67ffffffffffffffff81111562000dbd5762000dbc62000b31565b5b62000dc9825462000b8f565b62000dd682828562000cfb565b600060209050601f83116001811462000e0e576000841562000df9578287015190505b62000e05858262000d78565b86555062000e75565b601f19841662000e1e8662000bc4565b60005b8281101562000e485784890151825560018201915060208501945060208101905062000e21565b8683101562000e68578489015162000e64601f89168262000d58565b8355505b6001600288020188555050505b505050505050565b6000819050919050565b600062000ea862000ea262000e9c8462000e7d565b62000c4c565b62000878565b9050919050565b62000eba8162000e87565b82525050565b600060208201905062000ed7600083018462000eaf565b92915050565b600073ffffffffffffffffffffffffffffffffffffffff82169050919050565b600062000f0a8262000edd565b9050919050565b62000f1c8162000efd565b82525050565b600060208201905062000f39600083018462000f11565b92915050565b600062000f4c8262000878565b915062000f598362000878565b925082820190508082111562000f745762000f73620008fa565b5b92915050565b62000f858162000878565b82525050565b600060408201905062000fa2600083018562000f7a565b62000fb1602083018462000f7a565b9392505050565b600060608201905062000fcf600083018662000f11565b62000fde602083018562000f7a565b62000fed604083018462000f7a565b949350505050565b60006020820190506200100c600083018462000f7a565b92915050565b60805161190c6200102e60003960006104d0015261190c6000f3fe608060405234801561001057600080fd5b506004361061012c5760003560e01c80635c975abb116100ad5780638da5cb5b116100715780638da5cb5b146102e757806395d89b4114610305578063a9059cbb14610323578063dd62ed3e14610353578063f2fde38b146103835761012c565b80635c975abb1461026957806370a0823114610287578063715018a6146102b757806379cc6790146102c15780638456cb59146102dd5761012c565b806323b872dd116100f457806323b872dd146101d7578063313ce56714610207578063355274ea146102255780633f4ba83a1461024357806342966c681461024d5761012c565b806306fdde0314610131578063095ea7b31461014f5780630ac168a11461017f57806318160ddd1461019d5780631a18e707146101bb575b600080fd5b61013961039f565b604051610146919061134a565b60405180910390f35b61016960048036038101906101649190611405565b610431565b6040516101769190611460565b60405180910390f35b610187610454565b604051610194919061148a565b60405180910390f35b6101a561045a565b6040516101b2919061148a565b60405180910390f35b6101d560048036038101906101d091906114a5565b610464565b005b6101f160048036038101906101ec91906114d2565b610494565b6040516101fe9190611460565b60405180910390f35b61020f6104c3565b60405161021c9190611541565b60405180910390f35b61022d6104cc565b60405161023a919061148a565b60405180910390f35b61024b6104f4565b005b610267600480360381019061026291906114a5565b610506565b005b61027161051a565b60405161027e9190611460565b60405180910390f35b6102a1600480360381019061029c919061155c565b610531565b6040516102ae919061148a565b60405180910390f35b6102bf610579565b005b6102db60048036038101906102d69190611405565b61058d565b005b6102e56105ad565b005b6102ef6105bf565b6040516102fc9190611598565b60405180910390f35b61030d6105e9565b60405161031a919061134a565b60405180910390f35b61033d60048036038101906103389190611405565b61067b565b60405161034a9190611460565b60405180910390f35b61036d600480360381019061036891906115b3565b61069e565b60405161037a919061148a565b60405180910390f35b61039d6004803603810190610398919061155c565b610725565b005b6060600380546103ae90611622565b80601f01602080910402602001604051908101604052809291908181526020018280546103da90611622565b80156104275780601f106103fc57610100808354040283529160200191610427565b820191906000526020600020905b81548152906001019060200180831161040a57829003601f168201915b5050505050905090565b60008061043c6107ab565b90506104498185856107b3565b600191505092915050565b60065481565b6000600254905090565b61046c6107c5565b6104746104c3565b600a61048091906117b5565b8161048b9190611800565b60068190555050565b60008061049f6107ab565b90506104ac85828561084c565b6104b78585856108e1565b60019150509392505050565b60006012905090565b60007f0000000000000000000000000000000000000000000000000000000000000000905090565b6104fc6107c5565b6105046109d5565b565b6105176105116107ab565b82610a38565b50565b6000600560149054906101000a900460ff16905090565b60008060008373ffffffffffffffffffffffffffffffffffffffff1673ffffffffffffffffffffffffffffffffffffffff168152602001908152602001600020549050919050565b6105816107c5565b61058b6000610aba565b565b61059f826105996107ab565b8361084c565b6105a98282610a38565b5050565b6105b56107c5565b6105bd610b80565b565b6000600560009054906101000a900473ffffffffffffffffffffffffffffffffffffffff16905090565b6060600480546105f890611622565b80601f016020809104026020016040519081016040528092919081815260200182805461062490611622565b80156106715780601f1061064657610100808354040283529160200191610671565b820191906000526020600020905b81548152906001019060200180831161065457829003601f168201915b5050505050905090565b6000806106866107ab565b90506106938185856108e1565b600191505092915050565b6000600160008473ffffffffffffffffffffffffffffffffffffffff1673ffffffffffffffffffffffffffffffffffffffff16815260200190815260200160002060008373ffffffffffffffffffffffffffffffffffffffff1673ffffffffffffffffffffffffffffffffffffffff16815260200190815260200160002054905092915050565b61072d6107c5565b600073ffffffffffffffffffffffffffffffffffffffff168173ffffffffffffffffffffffffffffffffffffffff160361079f5760006040517f1e4fbdf70000000000000000000000000000000000000000000000000000000081526004016107969190611598565b60405180910390fd5b6107a881610aba565b50565b600033905090565b6107c08383836001610be3565b505050565b6107cd6107ab565b73ffffffffffffffffffffffffffffffffffffffff166107eb6105bf565b73ffffffffffffffffffffffffffffffffffffffff161461084a5761080e6107ab565b6040517f118cdaa70000000000000000000000000000000000000000000000000000000081526004016108419190611598565b60405180910390fd5b565b6000610858848461069e565b90507fffffffffffffffffffffffffffffffffffffffffffffffffffffffffffffffff8110156108db57818110156108cb578281836040517ffb8f41b20000000000000000000000000000000000000000000000000000000081526004016108c293929190611842565b60405180910390fd5b6108da84848484036000610be3565b5b50505050565b600073ffffffffffffffffffffffffffffffffffffffff168373ffffffffffffffffffffffffffffffffffffffff16036109535760006040517f96c6fd1e00000000000000000000000000000000000000000000000000000000815260040161094a9190611598565b60405180910390fd5b600073ffffffffffffffffffffffffffffffffffffffff168273ffffffffffffffffffffffffffffffffffffffff16036109c55760006040517fec442f050000000000000000000000000000000000000000000000000000000081526004016109bc9190611598565b60405180910390fd5b6109d0838383610dba565b505050565b6109dd610ebb565b6000600560146101000a81548160ff0219169083151502179055507f5db9ee0a495bf2e6ff9c91a7834c1ba4fdd244a5e8aa4e537bd38aeae4b073aa610a216107ab565b604051610a2e9190611598565b60405180910390a1565b600073ffffffffffffffffffffffffffffffffffffffff168273ffffffffffffffffffffffffffffffffffffffff1603610aaa5760006040517f96c6fd1e000000000000000000000000000000000000000000000000000000008152600401610aa19190611598565b60405180910390fd5b610ab682600083610dba565b5050565b6000600560009054906101000a900473ffffffffffffffffffffffffffffffffffffffff16905081600560006101000a81548173ffffffffffffffffffffffffffffffffffffffff021916908373ffffffffffffffffffffffffffffffffffffffff1602179055508173ffffffffffffffffffffffffffffffffffffffff168173ffffffffffffffffffffffffffffffffffffffff167f8be0079c531659141344cd1fd0a4f28419497f9722a3daafe3b4186f6b6457e060405160405180910390a35050565b610b88610efb565b6001600560146101000a81548160ff0219169083151502179055507f62e78cea01bee320cd4e420270b5ea74000d11b0c9f74754ebdbfc544b05a258610bcc6107ab565b604051610bd99190611598565b60405180910390a1565b600073ffffffffffffffffffffffffffffffffffffffff168473ffffffffffffffffffffffffffffffffffffffff1603610c555760006040517fe602df05000000000000000000000000000000000000000000000000000000008152600401610c4c9190611598565b60405180910390fd5b600073ffffffffffffffffffffffffffffffffffffffff168373ffffffffffffffffffffffffffffffffffffffff1603610cc75760006040517f94280d62000000000000000000000000000000000000000000000000000000008152600401610cbe9190611598565b60405180910390fd5b81600160008673ffffffffffffffffffffffffffffffffffffffff1673ffffffffffffffffffffffffffffffffffffffff16815260200190815260200160002060008573ffffffffffffffffffffffffffffffffffffffff1673ffffffffffffffffffffffffffffffffffffffff168152602001908152602001600020819055508015610db4578273ffffffffffffffffffffffffffffffffffffffff168473ffffffffffffffffffffffffffffffffffffffff167f8c5be1e5ebec7d5bd14f71427d1e84f3dd0314c0f7b2291e5b200ac8c7c3b92584604051610dab919061148a565b60405180910390a35b50505050565b610dc2610efb565b600073ffffffffffffffffffffffffffffffffffffffff168373ffffffffffffffffffffffffffffffffffffffff1614158015610e2c5750600073ffffffffffffffffffffffffffffffffffffffff168273ffffffffffffffffffffffffffffffffffffffff1614155b8015610e655750600073ffffffffffffffffffffffffffffffffffffffff164173ffffffffffffffffffffffffffffffffffffffff1614155b8015610e9d57504173ffffffffffffffffffffffffffffffffffffffff168273ffffffffffffffffffffffffffffffffffffffff1614155b15610eab57610eaa610f3c565b5b610eb6838383610f6d565b505050565b610ec361051a565b610ef9576040517f8dfc202b00000000000000000000000000000000000000000000000000000000815260040160405180910390fd5b565b610f0361051a565b15610f3a576040517fd93c066500000000000000000000000000000000000000000000000000000000815260040160405180910390fd5b565b610f446104cc565b600654610f4f61045a565b610f599190611879565b11610f6b57610f6a41600654611013565b5b565b610f78838383611095565b600073ffffffffffffffffffffffffffffffffffffffff168373ffffffffffffffffffffffffffffffffffffffff160361100e576000610fb66104cc565b90506000610fc261045a565b90508181111561100b5780826040517f9e79f8540000000000000000000000000000000000000000000000000000000081526004016110029291906118ad565b60405180910390fd5b50505b505050565b600073ffffffffffffffffffffffffffffffffffffffff168273ffffffffffffffffffffffffffffffffffffffff16036110855760006040517fec442f0500000000000000000000000000000000000000000000000000000000815260040161107c9190611598565b60405180910390fd5b61109160008383610dba565b5050565b600073ffffffffffffffffffffffffffffffffffffffff168373ffffffffffffffffffffffffffffffffffffffff16036110e75780600260008282546110db9190611879565b925050819055506111ba565b60008060008573ffffffffffffffffffffffffffffffffffffffff1673ffffffffffffffffffffffffffffffffffffffff16815260200190815260200160002054905081811015611173578381836040517fe450d38c00000000000000000000000000000000000000000000000000000000815260040161116a93929190611842565b60405180910390fd5b8181036000808673ffffffffffffffffffffffffffffffffffffffff1673ffffffffffffffffffffffffffffffffffffffff16815260200190815260200160002081905550505b600073ffffffffffffffffffffffffffffffffffffffff168273ffffffffffffffffffffffffffffffffffffffff16036112035780600260008282540392505081905550611250565b806000808473ffffffffffffffffffffffffffffffffffffffff1673ffffffffffffffffffffffffffffffffffffffff168152602001908152602001600020600082825401925050819055505b8173ffffffffffffffffffffffffffffffffffffffff168373ffffffffffffffffffffffffffffffffffffffff167fddf252ad1be2c89b69c2b068fc378daa952ba7f163c4a11628f55a4df523b3ef836040516112ad919061148a565b60405180910390a3505050565b600081519050919050565b600082825260208201905092915050565b60005b838110156112f45780820151818401526020810190506112d9565b60008484015250505050565b6000601f19601f8301169050919050565b600061131c826112ba565b61132681856112c5565b93506113368185602086016112d6565b61133f81611300565b840191505092915050565b600060208201905081810360008301526113648184611311565b905092915050565b600080fd5b600073ffffffffffffffffffffffffffffffffffffffff82169050919050565b600061139c82611371565b9050919050565b6113ac81611391565b81146113b757600080fd5b50565b6000813590506113c9816113a3565b92915050565b6000819050919050565b6113e2816113cf565b81146113ed57600080fd5b50565b6000813590506113ff816113d9565b92915050565b6000806040838503121561141c5761141b61136c565b5b600061142a858286016113ba565b925050602061143b858286016113f0565b9150509250929050565b60008115159050919050565b61145a81611445565b82525050565b60006020820190506114756000830184611451565b92915050565b611484816113cf565b82525050565b600060208201905061149f600083018461147b565b92915050565b6000602082840312156114bb576114ba61136c565b5b60006114c9848285016113f0565b91505092915050565b6000806000606084860312156114eb576114ea61136c565b5b60006114f9868287016113ba565b935050602061150a868287016113ba565b925050604061151b868287016113f0565b9150509250925092565b600060ff82169050919050565b61153b81611525565b82525050565b60006020820190506115566000830184611532565b92915050565b6000602082840312156115725761157161136c565b5b6000611580848285016113ba565b91505092915050565b61159281611391565b82525050565b60006020820190506115ad6000830184611589565b92915050565b600080604083850312156115ca576115c961136c565b5b60006115d8858286016113ba565b92505060206115e9858286016113ba565b9150509250929050565b7f4e487b7100000000000000000000000000000000000000000000000000000000600052602260045260246000fd5b6000600282049050600182168061163a57607f821691505b60208210810361164d5761164c6115f3565b5b50919050565b7f4e487b7100000000000000000000000000000000000000000000000000000000600052601160045260246000fd5b60008160011c9050919050565b6000808291508390505b60018511156116d9578086048111156116b5576116b4611653565b5b60018516156116c45780820291505b80810290506116d285611682565b9450611699565b94509492505050565b6000826116f257600190506117ae565b8161170057600090506117ae565b816001811461171657600281146117205761174f565b60019150506117ae565b60ff84111561173257611731611653565b5b8360020a91508482111561174957611748611653565b5b506117ae565b5060208310610133831016604e8410600b84101617156117845782820a90508381111561177f5761177e611653565b5b6117ae565b611791848484600161168f565b925090508184048111156117a8576117a7611653565b5b81810290505b9392505050565b60006117c0826113cf565b91506117cb83611525565b92506117f87fffffffffffffffffffffffffffffffffffffffffffffffffffffffffffffffff84846116e2565b905092915050565b600061180b826113cf565b9150611816836113cf565b9250828202611824816113cf565b9150828204841483151761183b5761183a611653565b5b5092915050565b60006060820190506118576000830186611589565b611864602083018561147b565b611871604083018461147b565b949350505050565b6000611884826113cf565b915061188f836113cf565b92508282019050808211156118a7576118a6611653565b5b92915050565b60006040820190506118c2600083018561147b565b6118cf602083018461147b565b939250505056fea2646970667358221220cbc4a984cbc2215d41adb43e7deecee3d0586a85a8e4c60734cb35664b417b6a64736f6c63430008140033",
  "linkReferences": {},
  "deployedLinkReferences": {}
}